{
  "contractName": "Vaccine",
  "abi": [
    {
      "inputs": [],
      "stateMutability": "nonpayable",
      "type": "constructor"
    },
    {
      "inputs": [
        {
          "internalType": "address",
          "name": "_addr",
          "type": "address"
        },
        {
          "internalType": "enum Vaccine.VaccineType",
          "name": "_vaccineType",
          "type": "uint8"
        }
      ],
      "name": "claimCredential",
      "outputs": [
        {
          "internalType": "bool",
          "name": "",
          "type": "bool"
        }
      ],
      "stateMutability": "nonpayable",
      "type": "function"
    },
    {
      "inputs": [
        {
          "internalType": "address",
          "name": "_addr",
          "type": "address"
        }
      ],
      "name": "isCredential",
      "outputs": [
        {
          "internalType": "bool",
          "name": "",
          "type": "bool"
        }
      ],
      "stateMutability": "view",
      "type": "function",
      "constant": true
    },
    {
      "inputs": [
        {
          "internalType": "address",
          "name": "_addr",
          "type": "address"
        }
      ],
      "name": "getVaccineType",
      "outputs": [
        {
          "internalType": "enum Vaccine.VaccineType",
          "name": "",
          "type": "uint8"
        }
      ],
      "stateMutability": "view",
      "type": "function",
      "constant": true
    }
  ],
  "bytecode": "0x6080604052600060015534801561001557600080fd5b50610727806100256000396000f3fe608060405234801561001057600080fd5b50600436106100415760003560e01c8063991db6da14610046578063defa395e14610076578063f4f3b96f146100a6575b600080fd5b610060600480360381019061005b919061048b565b6100d6565b60405161006d919061052f565b60405180910390f35b610090600480360381019061008b919061056f565b61012e565b60405161009d91906105ca565b60405180910390f35b6100c060048036038101906100bb919061048b565b6103b8565b6040516100cd91906105ca565b60405180910390f35b60008060008373ffffffffffffffffffffffffffffffffffffffff1673ffffffffffffffffffffffffffffffffffffffff16815260200190815260200160002060010160149054906101000a900460ff169050919050565b60008015156000808573ffffffffffffffffffffffffffffffffffffffff1673ffffffffffffffffffffffffffffffffffffffff16815260200190815260200160002060030160009054906101000a900460ff161515146101c4576040517f08c379a00000000000000000000000000000000000000000000000000000000081526004016101bb90610642565b60405180910390fd5b6001546000808573ffffffffffffffffffffffffffffffffffffffff1673ffffffffffffffffffffffffffffffffffffffff16815260200190815260200160002060000181905550826000808573ffffffffffffffffffffffffffffffffffffffff1673ffffffffffffffffffffffffffffffffffffffff16815260200190815260200160002060010160006101000a81548173ffffffffffffffffffffffffffffffffffffffff021916908373ffffffffffffffffffffffffffffffffffffffff160217905550816000808573ffffffffffffffffffffffffffffffffffffffff1673ffffffffffffffffffffffffffffffffffffffff16815260200190815260200160002060010160146101000a81548160ff021916908360028111156102f0576102ef6104b8565b5b0217905550426000808573ffffffffffffffffffffffffffffffffffffffff1673ffffffffffffffffffffffffffffffffffffffff1681526020019081526020016000206002018190555060016000808573ffffffffffffffffffffffffffffffffffffffff1673ffffffffffffffffffffffffffffffffffffffff16815260200190815260200160002060030160006101000a81548160ff02191690831515021790555060018060008282546103a7919061069b565b925050819055506001905092915050565b6000600115156000808473ffffffffffffffffffffffffffffffffffffffff1673ffffffffffffffffffffffffffffffffffffffff16815260200190815260200160002060030160009054906101000a900460ff161515141561041e5760019050610423565b600090505b919050565b600080fd5b600073ffffffffffffffffffffffffffffffffffffffff82169050919050565b60006104588261042d565b9050919050565b6104688161044d565b811461047357600080fd5b50565b6000813590506104858161045f565b92915050565b6000602082840312156104a1576104a0610428565b5b60006104af84828501610476565b91505092915050565b7f4e487b7100000000000000000000000000000000000000000000000000000000600052602160045260246000fd5b600381106104f8576104f76104b8565b5b50565b6000819050610509826104e7565b919050565b6000610519826104fb565b9050919050565b6105298161050e565b82525050565b60006020820190506105446000830184610520565b92915050565b6003811061055757600080fd5b50565b6000813590506105698161054a565b92915050565b6000806040838503121561058657610585610428565b5b600061059485828601610476565b92505060206105a58582860161055a565b9150509250929050565b60008115159050919050565b6105c4816105af565b82525050565b60006020820190506105df60008301846105bb565b92915050565b600082825260208201905092915050565b7f416c726561647920526567697374657265640000000000000000000000000000600082015250565b600061062c6012836105e5565b9150610637826105f6565b602082019050919050565b6000602082019050818103600083015261065b8161061f565b9050919050565b6000819050919050565b7f4e487b7100000000000000000000000000000000000000000000000000000000600052601160045260246000fd5b60006106a682610662565b91506106b183610662565b9250827fffffffffffffffffffffffffffffffffffffffffffffffffffffffffffffffff038211156106e6576106e561066c565b5b82820190509291505056fea2646970667358221220d1271a7b600194c82674f8a3b511cdc05c3962a525f8d0776b80cc0016b528a164736f6c634300080a0033",
  "immutableReferences": {},
  "source": "// SPDX-License-Identifier: MIT\r\npragma solidity >=0.4.22 <0.9.0;\r\n\r\ncontract Vaccine {\r\n    struct Credential {\r\n        uint256 id;\r\n        address issuer;\r\n        VaccineType vaccineType;\r\n        uint256 createDate;\r\n        bool status;\r\n    }\r\n\r\n    // address public owner;\r\n\r\n    constructor() {\r\n        // owner = msg.sender;\r\n    }\r\n\r\n    mapping(address => Credential) private credentials;\r\n    //Credential private _credential;\r\n\r\n    uint256 internal idCount = 0;\r\n    enum VaccineType {PF, MD, AZ}\r\n\r\n    function claimCredential(address  _addr, VaccineType _vaccineType) public returns(bool) {        \r\n        require(credentials[_addr].status == false, \"Already Registered\" );\r\n\r\n        credentials[_addr].id = idCount;\r\n        credentials[_addr].issuer = _addr;\r\n        credentials[_addr].vaccineType = _vaccineType;\r\n        credentials[_addr].createDate = block.timestamp;\r\n        credentials[_addr].status = true;\r\n\r\n        idCount += 1;\r\n\r\n        return true;\r\n    }\r\n\r\n    function isCredential(address  _addr) public view returns(bool) {\r\n        // require(owner == msg.sender, \"No Permission to Check Credentials\");\r\n\r\n        if (credentials[_addr].status == true) return true;\r\n\r\n        return false;\r\n    }\r\n\r\n    function getVaccineType(address  _addr) public view returns(VaccineType) {\r\n        // require(owner == msg.sender, \"No Permission to Check Vaccine Type\");\r\n\r\n        return credentials[_addr].vaccineType;\r\n    }\r\n}",
  "sourcePath": "D:\\work\\bapp\\vaccine_did\\contracts\\vaccine.sol",
  "compiler": {
    "name": "solc",
    "version": "0.8.10+commit.fc410830.Emscripten.clang"
  },
  "schemaVersion": "3.4.4",
  "updatedAt": "2022-05-02T23:07:53.054Z",
  "networkType": "ethereum",
  "devdoc": {
    "kind": "dev",
    "methods": {},
    "version": 1
  },
  "userdoc": {
    "kind": "user",
    "methods": {},
    "version": 1
  }
}